:020000040800F2
:10000000B83800206902000849870008416C0008E0
:1000100045870008250A000865EE0008000000007A
:10002000000000000000000000000000CDBD00083E
:10003000F1190008000000007D8B0008CFBD00080A
:10004000830200088302000883020008830200087C
:10005000830200088302000883020008830200086C
:1000600083020008EB1A0008F51A00088302000852
:10007000A50F00088302000883020008830200081D
:10008000830200088302000883020008890A00082E
:10009000790A00088302000883020008FF1A00089A
:1000A000A1BE000883020008830200088302000842
:1000B000B1BE0008C1BE0008830200088302000828
:1000C00083020008830200088302000883020008FC
:1000D000830200088302000883020008E9C90008BF
:1000E00083020008830200088302000883020008DC
:1000F00083020008830200088302000883020008CC
:1001000083020008830200088302000883020008BB
:1001100083020008830200088302000883020008AB
:1001200083020008B50F0008C50F00085D1800081D
:10013000830200088302000883020008ED0A000819
:10014000DD0A000883020008830200084D870008CA
:10015000830200086D180008830200082DCB0008F8
:10016000830200088302000883020008830200085B
:1001700083020008830200088302000800000000D8
:10018000830200088302000800F002F800F05CF827
:100190000AA090E8000C82448344AAF10107DA45E2
:1001A00001D100F051F8AFF2090EBAE80F0013F0D8
:1001B000010F18BFFB1A43F001031847E41F0100A9
:1001C000042001000A444FF0000C10F8013B13F02A
:1001D000070408BF10F8014B1D1108BF10F8015BA0
:1001E000641E05D010F8016B641E01F8016BF9D193
:1001F00013F0080F1EBF10F8014BAD1C0C1B09D1EA
:100200006D1E58BF01F801CBFAD505E014F8016B5B
:1002100001F8016B6D1EF9D59142D6D370470000ED
:100220000023002400250026103A28BF78C1FBD8FF
:10023000520728BF30C148BF0B6070471FB511F08F
:10024000F4FD1FBD10B510BD00F07CF91146FFF79D
:10025000F5FF10F09BFE00F09AF903B4FFF7F2FFF0
:1002600003BC00F09DF90000094880470948004799
:10027000FEE7FEE7FEE7FEE7FEE7FEE7FEE7FEE756
:10028000FEE7FEE704480549054A064B70470000B3
:100290008DBE000889010008B8320020B83800205F
:1002A000B8340020B834002053EA020C00F0698012
:1002B0002DE9F04B4FF00006002B1FBFB3FA83F57A
:1002C00003FA05F424FA05F65E4012BF1643B2FAAB
:1002D00082F502FA05F4C5F120051EBF22FA05FCDD
:1002E00044EA0C04203556EA044C4FEA144418BF83
:1002F000641C4FF000084FF00009904271EB030CB2
:1003000039D3002919BFB1FA81F701FA07F6B0FA1B
:1003100080F700FA07F6C7F120071EBF20FA07FC96
:1003200046EA0C062037B6FBF4FCA7EB0507103FA6
:1003300007F01F0BCBF120060CFA0BFB2CFA06F68C
:1003400044BFB3460026202FA4BF5E464FF0000BEB
:100350005BEA060C08BF4FF0010B19EB0B09ABFB76
:10036000027C48EB0608C01B06FB02CC0BFB03CC4F
:1003700071EB0C01C1E70B46024641464846BDE819
:10038000F08B13B54FF000004FF00001AFF3008089
:10039000BDE81C407047032A40F2308010F0030C87
:1003A00000F0158011F8013BBCF1020F624498BFC8
:1003B00011F801CB00F8013B38BF11F8013BA2F165
:1003C000040298BF00F801CB38BF00F8013B11F0E0
:1003D000030300F07C80083AC0F0088051F8043B29
:1003E000083A51F804CBA0E80810F5E7121D5CBFED
:1003F00051F8043B40F8043BAFF30080D20724BF20
:1004000011F8013B11F801CB48BF11F8012B24BFB3
:1004100000F8013B00F801CB48BF00F8012B704702
:100420004FF000020429C0F0128010F0030C00F01D
:100430001B80CCF1040CBCF1020F18BF00F8012B9B
:10044000A8BF20F8022BA1EB0C0100F00DB85FEA69
:10045000C17C24BF00F8012B00F8012B48BF00F835
:10046000012B70474FF0000200B5134694469646A4
:10047000203922BFA0E80C50A0E80C50B1F12001B7
:10048000BFF4F7AF090728BFA0E80C5048BF0CC065
:100490005DF804EB890028BF40F8042B08BF7047C3
:1004A00048BF20F8022B11F0804F18BF00F8012B35
:1004B000704770477047704710B500F03BF8006810
:1004C00010BD10B5044600F035F8046010BD10B53D
:1004D000203AC0F00B80B1E81850203AA0E818503C
:1004E000B1E81850A0E81850BFF4F5AF5FEA027CFD
:1004F00024BFB1E81850A0E8185044BF18C918C06C
:10050000BDE810405FEA827C24BF51F8043B40F80C
:10051000043B08BF7047D20728BF31F8023B48BFF1
:1005200011F8012B28BF20F8023B48BF00F8012B2F
:100530007047000000487047543200200048704760
:10054000543200207546FFF7F9FFAE4605006946B4
:10055000534620F00700854618B020B5FFF792FEFD
:10056000BDE820404FF000064FF000074FF00008B4
:100570004FF0000B21F00701AC46ACE8C009ACE835
:10058000C009ACE8C009ACE8C0098D46704710B599
:100590000446AFF300802046BDE81040FFF75DBE83
:1005A00001491820ABBEFEE726000200704700009C
:1005B000B7EE000A80ED000A9FED060A80ED010A01
:1005C0009FED040A80ED020A9FED020A80ED030A06
:1005D00070470000000000002DE9F0412DED028B76
:1005E0000646B0EE408A0C4615461F4695ED023A87
:1005F000F0EE432A95ED013AB0EE432A95ED003A2C
:10060000F0EE431A94ED023AB0EE431A94ED013A3B
:10061000F0EE430A94ED003AB0EE430A9FED064A2D
:10062000DFED053A9FED043A304607F037FCBDECAC
:10063000028BBDE8F08100000000000030B50546E7
:100640000C46002D0DD0022C0BD94FF6FF72A11EC7
:10065000284601F035FD291901F8020C000A01F8BD
:10066000010C30BD10B501221021024803F09CFAA4
:1006700010BD00000000024010B500221021024809
:1006800003F092FA10BD0000000002407047000025
:1006900010B501221146024803F086FA10BD000091
:1006A0000004024010B500220121024803F07CFA48
:1006B00010BD00000004024010B543781B021BB2BD
:1006C0000478234300EE103AB8EEC01A1C4BD3ED69
:1006D000001A21EE211A81ED001AC3781B021BB209
:1006E0008478234300EE103AB8EEC01A144BD3EDD1
:1006F000001A21EE211A81ED011A43791B021BB267
:100700000479234300EE103AB8EEC01A0C4BD3ED37
:10071000001A21EE211A81ED021A037A1B04C47912
:1007200043EA04238479234300EE903AB8EE601A3A
:10073000DFED041A21EE211A82ED001A10BD00002F
:100740000000002000401C42704710B504462046BF
:100750000FF0FCFE10BD10B5044620460FF01EFF42
:1007600010BD00004278120212B203781A4300EE64
:10077000102AF8EEC00A144A92ED001A60EE810ABF
:10078000C1ED000AC278120212B283781A4300EE59
:10079000102AF8EEC00A0C4A92ED001A60EE810AA7
:1007A000C1ED010A4279120212B203791A4300EE36
:1007B000102AF8EEC00A044A92ED001A60EE810A8F
:1007C000C1ED020A704700000400002010B50024AB
:1007D000FFF75CFFFFF7B8FF0FF0C2FB10B144F06A
:1007E000800402E00FF022FB04430FF0B1FD10B1D2
:1007F00044F0400402E00FF031FD0443204610BDF8
:100800002DE9FC4105460E46174600200090019058
:10081000FFF732FF922000F0D1F80622694612203D
:1008200000F0ACF8FFF71EFF9DF80100000200B2D7
:100830009DF8001040EA010400EE104AB8EEC00A2C
:100840004C48D0ED000A20EE200A86ED000A9DF803
:100850000300000200B29DF8021040EA010400EE1D
:10086000104AB8EEC00A4348D0ED000A20EE200A34
:1008700086ED010A9DF80500000200B29DF8041003
:1008800040EA010400EE104AB8EEC00A3948D0ED43
:10089000000A20EE200A86ED020AFFF703FF082275
:1008A0006946002000F06AF8FFF7F2FE9DF80000AC
:1008B0000F2838D19DF80300000200B29DF8021005
:1008C00040EA010400EE104AB8EEC00A2A48D0ED12
:1008D000000A20EE200A85ED000A9DF805000002BE
:1008E00000B29DF8041040EA010400EE104AB8EE90
:1008F000C00A2148D0ED000A20EE200A85ED010A49
:100900009DF80700000200B29DF8061040EA0104BD
:1009100000EE104AB8EEC00A1748D0ED000A20EEEB
:10092000200A85ED020AFFF7A7FEA22000F046F894
:1009300002226946222000F021F8FFF793FE9DF87D
:100940000000C0009DF8011040EA6114B4F5806F0A
:1009500002DBA4F5006004B200EE104AF8EEC00A13
:10096000B4EE001AB3EE070A00EE810A87ED000A22
:10097000BDE8FC81000000200400002070B50646A0
:100980000C46154646F0800000F018F806E05520A9
:1009900000F014F82070641C681EC5B2002DF6D15A
:1009A00070BD70B504460D4644F0800000F006F8B6
:1009B000552000F003F8287070BD000001B582B02A
:1009C0004FF47A70012301AA02A90090024804F0B2
:1009D000DBFF9DF804000EBDF806002010B50246AE
:1009E0001378DB00547843EA6410B0F5806F02DBC3
:1009F000A0F5006318B200EE100AF8EEC00AB4EEDB
:100A0000001AB3EE070A00EE810A81ED000A10BD5C
:100A100070B505460C462846FFF7D0FF2046FFF785
:100A2000CDFF70BD00BFFEE710B504462068A0F200
:100A3000012050B1012802D0042812D10BE004F1AA
:100A40001C010A4806F0B6FD0BE004F11C01084841
:100A500006F0B0FD05E004F11C01064801F034FA8F
:100A600000BF00BF00BF00BF10BD0000A00C0020F1
:100A7000F40D0020E810002010B5024802F0F7F94C
:100A800010BD00005406002010B5024802F0EFF936
:100A900010BD00005406002010B504462068A0F2E6
:100AA000511088B1022810D0B02807D0B5280DD138
:100AB00004F11C01074801F007FA07E004F11C01EA
:100AC000054806F077FD01E000E000BF00BF00BF71
:100AD00000BF10BD480E00206414002010B502486D
:100AE00002F0C5F910BD00007C06002010B50248D8
:100AF00002F0BDF910BD00007C06002030B58BB0BF
:100B000004460D46012006900020019002900390BB
:100B100004900790012009900890002005902E492C
:100B2000206888421DD12D48046085620E200A90FD
:100B300040F2FF7340F20122002120460FF070FCCA
:100B400040F2FF7340F20222082120460FF068FCB9
:100B500040F2FF7340F20522142120460FF060FCA2
:100B600028E01F492068884224D11E48046085621D
:100B70000F200A9040F2FF7340F2062278212046AF
:100B80000FF04EFC40F2FF7340F20122802120461C
:100B90000FF046FC40F2FF7340F251128C212046C8
:100BA0000FF03EFC40F2FF7340F2531294212046B6
:100BB0000FF036FC01A9204601F0FCFF204602F0B0
:100BC00054FC0221204601F03BFF1021204601F099
:100BD00037FF0BB030BD000000640040AC150020B2
:100BE00000680040D8150020F0B587B006460C46D6
:100BF00017461D460194002002900390049005952D
:100C00006B463A4601A9304601F02FFF07B0F0BD10
:100C100004284FF0000070470020704710B50022F4
:100C2000044905480CF09CF9044903480CF08AF982
:100C3000002010BDE022002004160020E01A002051
:100C400070B505460C46284621680EF00DF918B11E
:100C5000284621680FF01CFC294604480CF072F964
:100C600002480CF03FF9002070BD0000041600207F
:100C70000020704710B50A460849D1F8BC12D1F8D7
:100C80001412002901D0012010BD014603480CF0C8
:100C900067F9BDE8104001480CF0FAB904160020CD
:100CA00010B504490448FFF729FF04490448FFF739
:100CB00025FF10BD290A000854060020990A0008E3
:100CC0007C06002010B5044608231E4A40F2FF119E
:100CD0001D48FFF789FF08231C4A40F2FF111C48FA
:100CE000FFF782FF08231B4A99011748FFF77CFF93
:100CF000052094FBF0F100FB114001280DD10823E1
:100D0000154A4FF4A8711248FFF76EFF0823134AE3
:100D10004FF4A9710E48FFF767FF052094FBF0F12F
:100D200000FB1140022806D108230D4A4FF4AA7196
:100D30000748FFF759FF08230A4A99010448FFF7BB
:100D400053FF10BD2003002054060020780300202C
:100D50007C06002028030020D0030020D8030020B8
:100D6000E0030020800300200120034908740020D4
:100D70004874087070470000700B002000B500F048
:100D800063F800F001F800BD2B48002101604160CC
:100D90002A48016041602A4890ED010ABDEEC00A70
:100DA00010EE100A000A24490870254890ED010A47
:100DB000BDEEC00A10EE100A4870214890ED020AFC
:100DC000BDEEC00A10EE100A000A88701C4890EDB3
:100DD000020ABDEEC00A10EE100AC870184890ED65
:100DE000030ABDEEC00A10EE100A000A087114488A
:100DF00090ED030ABDEEC00A10EE100A48711048CB
:100E000000780E4908700E48407C48700C48007C01
:100E100088700B48807CC8700948C07C08710848FD
:100E2000007D487107480649C98A018004498969DB
:100E3000C0F8021070470000D0030020D803002043
:100E4000700B0020E003002014480078B0B10128A6
:100E500005D0022802D003281ED101E000BF00BF48
:100E60000F48D0F82E000D4948600D48D0F83200E8
:100E700088600B48D0F83600C8600DE09FED090A85
:100E8000064880ED010A9FED070A80ED020A9FEDFA
:100E9000050A80ED030A00BF00BF7047700B0020F9
:100EA0009E130020000000003A4890F83A0010B16C
:100EB00001286CD13AE03748C07A02280DD1354874
:100EC000807A022809D1344890F8400528B10020E2
:100ED000314981F84005314908702E48C07A02280E
:100EE0000FD12C48807A03280BD12B4890F840056D
:100EF000022806D00220284981F840050120274910
:100F000008702448C07A02280FD12248807A01282C
:100F10000BD1214890F84005012806D001201E4938
:100F200081F8400502201D49087030E01948007D15
:100F3000C0F3401050B31748407D00F0010028B3C3
:100F40001748408978B9144890F8400501280AD01C
:100F50000120114981F840050220104908704FF422
:100F6000C8700F4948810E48408978B90A4890F8FE
:100F7000400501280AD10220074981F840050120D7
:100F8000064908704FF4C8700549488100BF00BF8A
:100F9000704700009E130020480E0020700B0020B8
:100FA0008C13002010B5024802F000FB10BD0000B9
:100FB000500A002010B5024802F0F8FA10BD0000F7
:100FC000B00A002010B5FE48C06C0068FD49884298
:100FD00076D9FC4854380068F949C96C0968FA4A5E
:100FE000914201D1202169E0F549C96C0968F54AAF
:100FF000483A914201D1202160E0F149C96C096869
:10100000F14A6032914201D1202157E0EC49C96C8C
:101010000968EC4A1832914201D120214EE0E8499A
:10102000C96C0968E84A1832914201D1C91445E0F7
:10103000E349C96C0968E34A303A914201D1C914C5
:101040003CE0DF49C96C0968DF4A7832914201D13E
:10105000C91433E0DA49C96C0968DA4A303291427E
:1010600001D1C9142AE0D649C96C0968D64A303280
:10107000914202D14FF4001120E0D149C96C0968B6
:10108000D04A183A914202D14FF4001116E0CC49EF
:10109000C96C0968CC4A9032914202D14FF40011D8
:1010A0000CE0C749C96C0968C64A4832914203D16D
:1010B0004FF4001102E003E04FF00061084070E1DE
:1010C000BF48C06C0068C049A831884276D9BD4885
:1010D00058380068BA49C96C0968BB4A914201D1C5
:1010E000202169E0B649C96C0968B64A483A91427C
:1010F00001D1202160E0B249C96C0968B24A60326E
:10110000914201D1202157E0AD49C96C0968AD4A2F
:101110001832914201D120214EE0A949C96C0968D9
:10112000A94A1832914201D1C91445E0A449C96CB9
:101130000968A44A303A914201D1C9143CE0A0495F
:10114000C96C0968A04A7832914201D1C91433E0D0
:101150009B49C96C09689B4A3032914201D1C9143C
:101160002AE09749C96C0968974A3032914202D106
:101170004FF4001120E09249C96C0968914A183A6D
:10118000914202D14FF4001116E08D49C96C0968F3
:101190008D4A9032914202D14FF400110CE08849FF
:1011A000C96C0968874A4832914203D14FF4001153
:1011B00002E003E04FF000610840F2E08048C06CBC
:1011C000006881494831884276D97F4810384068A4
:1011D0007B49C96C09687C4A914201D1202169E0B0
:1011E0007749C96C0968774A483A914201D1202170
:1011F00060E07349C96C0968734A6032914201D159
:10120000202157E06E49C96C09686E4A1832914234
:1012100001D120214EE06A49C96C09686A4A183236
:10122000914201D1C91445E06549C96C0968654A14
:10123000303A914201D1C9143CE06149C96C096856
:10124000614A7832914201D1C91433E05C49C96CDA
:1012500009685C4A3032914201D1C9142AE05849E8
:10126000C96C0968584A3032914202D14FF40011DA
:1012700020E05349C96C0968524A183A914202D198
:101280004FF4001116E04E49C96C09684E4A90327D
:10129000914202D14FF400110CE04949C96C096830
:1012A000484A4832914203D14FF4001102E003E072
:1012B0004FF00061084074E043481038006840492E
:1012C000C96C0968404A914201D1202168E03C493B
:1012D000C96C09683B4A483A914201D120215FE03C
:1012E0003749C96C0968384A6032914201D12021DE
:1012F00056E03349C96C0968324A1832914201D12B
:1013000020214DE02E49C96C09682F4A18329142BC
:1013100001D1C91444E02A49C96C0968294A303A04
:10132000914201D1C9143BE02549C96C0968264A9C
:101330007832914201D1C91432E02149C96C09685F
:10134000204A3032914201D1C91429E01C49C96CAC
:1013500009681D4A3032914202D14FF400111FE05A
:101360001749C96C0968174A183A914202D14FF4DB
:10137000001115E01249C96C0968134A9032914274
:1013800002D14FF400110BE00D49C96C09680D4AF8
:101390004832914202D14FF4001101E04FF0006158
:1013A000084000286FD00648C06C00680549884294
:1013B0007BD90348C06C00680349884208D105E026
:1013C000F80600205864024010600240202068E0C7
:1013D000FE48C06C0068FE49884201D1202060E0D0
:1013E000FA48C06C0068FB49884201D1202058E0CF
:1013F000F648C06C0068F6496031884201D120206F
:101400004FE0F248C06C0068F2494839884201D187
:10141000C01446E0ED48C06C0068ED4918318842C0
:1014200001D1C0143DE0E948C06C0068E9491831B9
:10143000884201D1C01434E0E448C06C0068E4493B
:101440007831884201D1C0142BE0E048C06C0068BC
:10145000E0493039884202D14FF4001021E0DB48E6
:10146000C06C0068DA493031884202D14FF4001074
:1014700017E0D648C06C0068D6493031884204D1A4
:101480004FF400100DE0DFE10FE0D048C06C0068C1
:10149000CF499031884202D14FF4001001E04FF063
:1014A0000060CB49091F08606AE1C848C06C006849
:1014B000C8494831884274D9C448C06C0068C549DD
:1014C0006039884201D1202066E0C048C06C0068C5
:1014D000BF49884201D120205EE0BC48C06C006852
:1014E000BC49884201D1202056E0B848C06C006851
:1014F000B7496031884201D120204DE0B348C06C2B
:101500000068B4494839884201D1C01444E0AF486A
:10151000C06C0068AE491831884201D1C0143BE06C
:10152000AA48C06C0068AB491831884201D1C01488
:1015300032E0A648C06C0068A5497831884201D1E4
:10154000C01429E0A148C06C0068A2493039884223
:1015500002D14FF400101FE09C48C06C00689C4909
:101560003031884202D14FF4001015E09748C06C2A
:10157000006898493031884202D14FF400100BE0E6
:101580009248C06C006892499031884202D14FF471
:10159000001001E04FF000608D4908390860EFE06D
:1015A000FFE78A48C06C00688A491839884274D9B4
:1015B0008648C06C006887496039884201D1202084
:1015C00066E08248C06C00688149884201D12020D1
:1015D0005EE07E48C06C00687E49884201D12020D0
:1015E00056E07A48C06C006879496031884201D180
:1015F00020204DE07548C06C006876494839884223
:1016000001D1C01444E07148C06C006870491831C1
:10161000884201D1C0143BE06C48C06C00686D4941
:101620001831884201D1C01432E06848C06C0068AB
:1016300067497831884201D1C01429E06348C06C01
:10164000006864493039884202D14FF400101FE02D
:101650005E48C06C00685E493031884202D14FF468
:10166000001015E05948C06C00685A493031884272
:1016700002D14FF400100BE05448C06C006854498C
:101680009031884202D14FF4001001E04FF0006029
:1016900050497039C86073E0FFE74C48C06C00687F
:1016A0004C496039884201D1202066E04748C06C2F
:1016B00000684749884201D120205EE04348C06C61
:1016C00000684449884201D1202056E03F48C06C60
:1016D00000683F496031884201D120204DE03B48FD
:1016E000C06C00683B494839884201D1C01444E0CD
:1016F0003648C06C006836491831884201D1C014A0
:101700003BE03248C06C006832491831884201D150
:10171000C01432E02D48C06C00682D4978318842F1
:1017200001D1C01429E02948C06C0068294930392A
:10173000884202D14FF400101FE02448C06C0068BA
:1017400023493031884202D14FF4001015E01F4880
:10175000C06C00681F493031884202D14FF400103C
:101760000BE01A48C06C006819499031884202D1D8
:101770004FF4001001E04FF00060164970398860A6
:101780001548007800F0020078B11348007820F086
:101790000200114908700846007840F00400087003
:1017A000012211460D4802F0FFF90D48007800F0C3
:1017B0000200E0B10A48007820F0020008490870F1
:1017C0000846007840F0040008700BE0F80600209E
:1017D0001064024070600240750000200004024066
:1017E0007600002001221021184802F0DDF9184887
:1017F000007800F0020078B11548007820F002006F
:10180000134908700846007840F00400087001226F
:1018100010210E4802F0C8F90FF028FA0D480078A0
:1018200000F0040080B10B48007820F00400094962
:1018300008700846007840F0080008700648006804
:1018400040F001000449086010BD000000000240A3
:101850007700002075000020103C014010B50248C0
:1018600001F0A4FE10BD0000B007002010B5024832
:1018700001F09CFE10BD0000100B0020014608780E
:1018800010381823B0FBF3F20848805CC865032ABF
:1018900005D908686FF30900001D886503E0086832
:1018A0006FF309008865886D704700005C1E0108B1
:1018B000014600208A6A8B69CBB932B1012A0DD06A
:1018C000022A03D0032A10D10EE000BFCB6A03F036
:1018D0008073B3F1807F00D1012007E0CB6AB3F1C0
:1018E000C07F00D1012001E000E000BF34E08B693F
:1018F000B3F5005F1AD132B1012A07D0022A03D012
:10190000032A11D10AE000BF01200EE0CB6A03F0E8
:101910008073B3F1807F00D1012006E0CB6AB3F180
:10192000C07F00D1012000E000BF15E032B1012AE4
:1019300005D0022A04D0032A0CD103E000BF00BF67
:10194000012008E0CB6A03F08073B3F1807F00D1FF
:10195000012000E000BF00BF7047000010B502F09A
:1019600029F91F4C6168401AA06002F023F96060F9
:101970001C485A2101700121417081700021C0F87A
:101980000310194991EDC50AB1EE400A10EE102A74
:10199000C0F8072091ED1D0AB1EE400A10EE101AB2
:1019A000C0F80B104FF6FF71A0F80F102238D0F8D6
:1019B00022100160D0F826104160D0F82A10816012
:1019C000D0F82E10C16090F8321001741121FEF78A
:1019D00035FEBDE8104011210448FFF74BB9000067
:1019E0003C040020022B0020480E0020E02A0020AA
:1019F000704700002048008820B11F480088401E22
:101A00001D4908801C48408820B11B484088401E62
:101A1000194948801848808820B117488088401E9E
:101A2000154988801448C08820B11348C088401EDA
:101A30001149C8801048408920B10F484089401E94
:101A40000D4948810C48C08920B10B48C089401E0F
:101A50000949C8810848808920B107488089401E0B
:101A6000054988810448C08920B10348C089401EC7
:101A70000149C881704700008C13002010B5024650
:101A80004B880B808B884B80CB888B800B89CB80DD
:101A90004B890B818B894B81CB898B810B8ACB81C5
:101AA0004B8A0B824A82B1F90030B1F902402344DB
:101AB000B1F904402344B1F906402344B1F9084088
:101AC0002344B1F90A402344B1F90C402344B1F94D
:101AD0000E402344B1F910402344B1F9124023448D
:101AE0000A2493FBF4F318B210BD10B5082001F0DE
:101AF00053FF10BD10B5102001F04EFF10BD10B502
:101B0000202001F049FF10BD72B600BFFEE70000C3
:101B10000F494888C11700EB11710911A0EB0111A1
:101B2000A9B90C48D0F81A00401C0A49C1F81A009B
:101B30000846D0F81600D1F81A10884207D2054896
:101B400000218182016041608160C1600161704754
:101B5000C60200209E1300201A4890F83A0010B1E7
:101B600001282CD100E02AE01648407DC0F3800017
:101B700020B3154890F8400502280CD11348007C8A
:101B800048B91348808930B94FF4C870104988812A
:101B900001200E4908740C4890F8400502280DD128
:101BA0000A48007C012809D10948808930B94FF4DE
:101BB000C8700749888100200449087400BF00BF2D
:101BC000704700009E130020480E0020700B00207C
:101BD0008C1300200E48007870B1012816D141F214
:101BE00050400B4988804EF6B030A1F858010846A5
:101BF00080880849C88209E0002005498880A1F84A
:101C00005801084680880349C88200BF00BF70475A
:101C10009C0B0020700B002010B53148B0F9040077
:101C200001EE100AB8EEC11AF0EE410A2C4890ED10
:101C3000531AB0EE410A801D06F0C0FE2848B0F9E4
:101C4000580101EE100AB8EEC11AF0EE410A24481C
:101C500090EDA81AB0EE410A00F5AD7006F0AEFEA8
:101C60001F48D0F83A0000EE100A1E4805F066FC46
:101C70001B48D0F88E0100EE100A1B4805F05EFCF0
:101C80001748007810B1012828D113E01448B0F8A3
:101C90009802000A15490870114890F89802487097
:101CA0000F48B0F84401000A88700D4890F84401CC
:101CB000C87013E00A48B0F89802000A0B4908708F
:101CC000074890F8980248700548B0F84401000AA7
:101CD0008870034890F84401C87000BF00BF10BD71
:101CE0009C0B0020A00C0020F40D002028030020F5
:101CF00010B5002010490870DFED100AB7EE000A99
:101D000040F202210E4805F069FCDFED0C0AB7EE47
:101D1000000A40F201210A4805F060FC312209491D
:101D20000548801D06F016FF312207490448563049
:101D300006F010FF10BD00009C0B00209A99993E00
:101D4000A00C00202C0100205401002010B52048D8
:101D500005F072FC1F4805F06FFC1F48B0F9180130
:101D600000EE100AB8EEC00A1B4880ED530AB0F925
:101D70006C0200EE100AB8EEC00A174880EDA80AFF
:101D800090ED440A80ED540A90ED990A80EDA90A7D
:101D9000B0F91A0100EE100AB8EEC00A0E4880ED44
:101DA000550AB0F96E0200EE100AB8EEC00A0A48F1
:101DB00080EDAA0A90ED530AD0EDA80A30EE600A31
:101DC000BDEEC00A10EE100A40B20349487010BDC3
:101DD000A00C0020F40D00209C0B002010B5FFF794
:101DE000B5FFFFF7F7FEFFF717FF0DF0DBF80DF07B
:101DF00023F910BD274890F83A0010B1012847D1C7
:101E000027E02448C07A032822D12248807A01287A
:101E10001ED12148808858B92048007840B1002060
:101E20001E4908701E4988744FF4C8701A4988808A
:101E30001948808860B919480078012808D0012025
:101E400016490870164988744FF4C8701249888082
:101E50001EE01048C07CD0B10F48808848B90F48B8
:101E6000007830B100200D4908704FF4C8700A495D
:101E700088800948808850B908480078012806D031
:101E80000120064908704FF4C8700349888000BFDC
:101E900000BF70479E1300208C1300209C0B002075
:101EA000700B00200180704700EE100AB8EEC00AE7
:101EB0009FED041AC0EE010AB0EE080A20EE800A77
:101EC0007047000000F8FF454A780B7842EA032289
:101ED00013B24381CA788B7842EA032213B2C380DB
:101EE0004A790B7942EA032212B282808B7903810C
:101EF0007047818180ED040A00230375704700005C
:101F000000EE100AB8EE400A9FED041AC0EE010A76
:101F10009FED030A20EE800A7047000000F8FF459D
:101F20000000B44300EE100AB8EE400A9FED061A16
:101F3000C0EE010AB0EE000A20EE800ADFED030ACF
:101F400020EE200A7047000000F8FF45C3F5484026
:101F500010B50446B4F90400FFF7A6FF84ED060AA5
:101F600094ED060AD4ED040A20EE200A84ED070A57
:101F70002189E186B4F9060004F12201FFF77EFD14
:101F80002084218F618760892087208FFFF7B8FF29
:101F900084ED100A208FFFF7C5FF84ED0F0A618FD3
:101FA000208F081AB0F5805F05DD4420005B401CDF
:101FB00001B244200153618F208F081A10F5805F11
:101FC00005DA4420005B401E01B244200153A16C9D
:101FD000616594ED130A84ED160A94ED140A84EDFC
:101FE000170A207D90BBB4F94400C0EB4031208F2C
:101FF0000144A16494ED100AB4F9440000EE900A83
:10200000F8EEE00A9FED2C1A00EE810A84ED140A26
:1020100094ED0F0AB4F9440000EE900AF8EEE00ADD
:10202000B0EE001A60EE810A9FED241A00EE810ADC
:1020300084ED130A4820005BA4F8600094ED140AB4
:1020400084ED1A0A94ED130A84ED190A207D012803
:1020500031D1B4F94400C0EB4031208F0144B4F8D1
:102060006000091AA16494ED100AB4F9440000EE6E
:10207000900AF8EEE00A9FED101A00EE810AD4ED06
:102080001A0A30EE600A84ED140A94ED0F0AB4F9CE
:10209000440000EE900AF8EEE00AB0EE001A60EE9E
:1020A000810A9FED061A00EE810AD4ED190A30EE7E
:1020B000600A84ED130A10BD0000B443C3F5484024
:1020C00000280FD0491E0BD3DFF820C010F8013BC9
:1020D0005340DBB23CF8133083EA1222491EF5D29A
:1020E000104670474FF6FF70704700007C1E0108D5
:1020F00070B50B480168001D0568001D00680844A4
:1021000000280CD0074C0822A11C05F0B9F904F1F5
:1021100012012846BDE87040042205F0B1B970BD37
:10212000107AFF1F2004002010B59FED2D0A2D48C6
:1021300080ED9F0A06F024FD2B49A1F8A202294850
:1021400090ED9F1AF0EE410A90EDA61AB0EE410A0A
:1021500000F2FD1006F032FC2348D0F8D10400EE66
:10216000100AB1EE400A1F4880EDA00A90EDA01AB7
:10217000F0EE410A90EDA71AB0EE410A00F5BF70EB
:1021800006F01CFC1848D0F8520400EE100ABDEE10
:10219000C00A10EE100A01B21248FFF783FE12487F
:1021A000B0F8A012B0F8A202084400B20E49A1F89B
:1021B000A0020846B0F9A00246F2A811884203DD49
:1021C00008460949A1F8A0020748B0F9A00207494A
:1021D000884204DA49F658600349A1F8A00210BD0C
:1021E00000000000E8100020480E0020589EFFFF6D
:1021F0004348007810B101285AD15AE0414890F87C
:10220000400501281CD002281BD0032832D13E48AB
:10221000D0F81E0000EE100AF1EE080A80EE201A37
:10222000384880EDA11A3848D0F8260000EE100A90
:10223000F1EE000A80EE201A344880EDA11A24E065
:1022400000BF3148D0F81E0000EE100AF2EE020A7C
:1022500080EE201A2B4880EDA11A2B48D0F82600DA
:1022600000EE100AF1EE080A80EE201A274880EDF1
:10227000A11A0AE09FED260A224880EDA10A9FEDEF
:10228000240A224880EDA10A00BF00BF1D4890ED3E
:102290009F0AD0EDA10A30EE200A80ED9F0A1B486C
:1022A00090ED9F0AD0EDA10A30EE200A80ED9F0A42
:1022B00024E0144890F8400501280FD002280ED0E1
:1022C000032818D10E48D0F801000E49C1F87C024D
:1022D0000B48D0F80500C1F81C050DE000BF084808
:1022E000D0F801000749C1F87C020548D0F8050084
:1022F000C1F81C0500E000BF00BF00BF00BF704771
:1023000021140020480E00209E130020E810002019
:102310000000000010B59FED2B0A01212A48FFF7AD
:10232000E8FD9FED280A02212848FFF7E2FD002181
:10233000264880F841150020244981F84005B7EE71
:10234000000A214880EDA30AB0EE000A084680ED9D
:10235000A30A002180F8B412017580F82815002026
:102360001A4981F88802252219491748FF3006F0DA
:10237000F1FB252217491448803006F0EBFB25229B
:102380001549164806F0E6FB2522154913487F3803
:1023900006F0E0FB252213490C48FF3006F0DAFB7B
:1023A000252211490948803006F0D4FB25220F4927
:1023B0000548A33806F0CEFB25220D490D4806F04E
:1023C000C9FB10BD2DB23D3FE8100020480E002093
:1023D000A40100207C010020F4010020E51200206F
:1023E000CC010020440200201C02002094020020A6
:1023F0006C020020C60F002010B5744890F8280524
:1024000010B101287BD140E006F0BAFB6F49A1F87A
:10241000A20201F5287090ED9F1AF0EE410A90EDAE
:10242000A61AB0EE410A00F2FD1006F0C7FA67489E
:10243000D0F8D10400EE100AB1EE400A644880EDF5
:10244000A00A90EDA01AF0EE410A90EDA71AB0EEA6
:10245000410A00F5BF7006F0B1FA5C48D0F85204AA
:1024600000EE100ABDEEC00A10EE100A01B2584884
:10247000FFF718FD5548B0F8A012B0F8A2020844C2
:1024800000B25249A1F8A00239E006F079FB4F49A9
:10249000A1F8A2024E4890ED9F1AF0EE410A90ED8D
:1024A000A61AB0EE410AFF3006F088FA4748D0F885
:1024B000D313C0F82015464890EDA01AF0EE410A5B
:1024C00090EDA71AB0EE410A803006F077FA3F4847
:1024D00090EDD50AB1EE400ABDEEC00A10EE100A2A
:1024E00001B23B48FFF7DEFC3848B0F8A012B0F864
:1024F000A202084400B23549A1F8A00200BF00BF03
:10250000324890F8880210B101285CD12FE02F48A2
:1025100090ED9F1AF0EE410A90EDA51AB0EE410A37
:1025200000F2FD1006F04AFA2848D0F83102274997
:10253000C1F88002084690EDA01AF0EE410A90ED35
:10254000A71AB0EE410A00F5BF7006F037FA1F482F
:10255000D0F8B20100EE100AB1EE400ABDEEC00A9A
:1025600010EE100A01B21948FFF79CFC2BE0174847
:1025700090ED9F1AF0EE410A90EDA51AB0EE410AD7
:10258000FF3006F01BFA1148D0F833010F49C1F8AB
:102590008002084690EDA01AF0EE410A90EDA71ACD
:1025A000B0EE410A803006F009FA084890ED2D0A95
:1025B000B1EE400ABDEEC00A10EE100A01B20348A7
:1025C000FFF770FC00BF00BF10BD0000480E0020E8
:1025D000E8100020104890F84005052819D2DFE8DF
:1025E00000F00304050F060000BF00BF00BF00207D
:1025F000094981F888020021074880F8281508E079
:102600000120054981F888020121034880F8281536
:1026100000BF00BF70470000480E0020154890F82A
:102620004005F0B114480021016041601148B0F844
:10263000A0024042000A104908700E4890F8A0021B
:10264000404248700D4800210160416009480088FF
:102650004042000A09498870064800784042C87024
:1026600006E00548002101604160044801604160C6
:1026700070470000480E002020030020780300204F
:1026800010B5B548FFF764FCB44890ED010AF7EEC9
:10269000000A20EE200ADFEDB20A80EE201A9FED3C
:1026A000B10A21EE000AB04880EDC50AAF48D0ED6E
:1026B000000A9FEDAF0ABFEE001A01EE200AAA48F9
:1026C00080EDC70A90EDBC0AA348D0EDA30A80EEC6
:1026D000201A80EDA51A07E0A348B0F83005401C89
:1026E00001B2A148A0F830159B4890EDA50A9E487C
:1026F000B0F9300500EE900AF8EEE00A9FED991A65
:1027000000EEC10ADFED9B0AB4EEE00AF1EE10FA2A
:10271000E2DC07E09448B0F83005401E01B2924870
:10272000A0F830158C4890EDA50A8F48B0F9300517
:1027300000EE900AF8EEE00A9FED8A1A00EEC10A58
:10274000DFED8D0AB4EEE00AF1EE10FAE2D386482E
:1027500090F82805E8B1012828D17F4890EDA50A16
:102760008148B0F9300500EE900AF8EEE00A9FEDDE
:102770007D1A00EEC10A784880EDA60A7A48B0F9C1
:10278000C00200EE100AB8EEC00A734880EDA70A36
:102790000CE0754890EDC50A6F4880EDA60A7248B6
:1027A00090EDC70A6C4880EDA70A00BF00BF6A48D9
:1027B00090EDA60A714880ED060A6B48FFF7C8FB4A
:1027C000694890ED1D0A80ED1E0A644890ED000AEC
:1027D000F1EE400A9FED621A80EE810ADFED610A98
:1027E00020EE200A604880ED1D0A90ED1D0AD0ED14
:1027F0001E0A30EE600ADFED5F0AB4EEE00AF1EE89
:1028000010FA06DDB0F86C00401E00B25649A1F87F
:102810006C00554890ED1D0AD0ED1E0A30EE600A9E
:10282000DFED550AB4EEE00AF1EE10FA06D2B0F888
:102830006C00401C00B24C49A1F86C004A4890ED75
:102840001D0AB0F96C0000EE900AF8EEE00A9FED68
:10285000451A00EE810A444880ED1C0A4348D0ED39
:10286000020A9FED470ABFEE001A01EE200A3E4819
:1028700080ED1F0A90ED140AD0EDA30A80EE201A15
:1028800080EDA51A07E03848B0F89002401C00B26D
:102890003549A1F89002344890EDA50AB0F99002AC
:1028A00000EE900AF8EEE00A9FED2E1A00EEC10A43
:1028B000DFED300AB4EEE00AF1EE10FAE3DC07E0F7
:1028C0002948B0F89002401E00B22749A1F89002B2
:1028D000254890EDA50AB0F9900200EE900AF8EEB6
:1028E000E00A9FED201A00EEC10ADFED230AB4EEE4
:1028F000E00AF1EE10FAE3D31B4890F88802D8B151
:10290000012827D1184890EDA50AB0F9900200EEF1
:10291000900AF8EEE00A9FED131A00EEC10A124881
:1029200080EDA60AB0F9200000EE100AB8EEC00A49
:102930000D4880EDA70A0DE00B4890ED1D0A80EDD3
:10294000A60A90ED1F0A80EDA70A90ED1C0A80ED03
:10295000A50A00BF00BF10BDE810002048060020F7
:10296000D00FC9400000B443480E002014060020D8
:102970007F6ABC3C00003443000034C3700B00206D
:10298000EC51B83D10B52A4890F8410530B1012806
:1029900013D0022820D0032843D12EE04FF4FA6050
:1029A000244908810420224981F84005FFF712FEDE
:1029B00001211F4880F8411533E01E480089401E60
:1029C0001C490881FFF7B0FB1A480089642802D12E
:1029D00001201949087024E00321154880F84115A9
:1029E0000020144908810220114981F84005012185
:1029F0000F4880F8B412017513E00D4890F84005B7
:102A000070B10E484088052190FBF1F201FB1200E5
:102A1000012803D1FFF7DEFDFFF7EAFBFFF7ECFC2F
:102A200000BF00BFFFF7FAFDFFF72AFE10BD000050
:102A3000480E00208C130020700B0020C6020020DE
:102A400010B5024692F82030012B01D0022B06D19E
:102A500010684069084314686061002010BD506A26
:102A600040F4802050620120F8E7F0B504460D469E
:102A70001E4694F8207020688368A86800B900E0BA
:102A800000BF012F01D0022F7DD103F0806030B94B
:102A900003F0006018B903F0805000287ED0C3F323
:102AA0000161012088403060A86860B9B5F800C0B5
:102AB000E86840EA4C5C206800F5C07000EB01104B
:102AC000C0F800C00FE0D5E901C040EACC00D5F85D
:102AD0000CC040EA0C00D4F800C00CF5C07C0CEB34
:102AE000011CCCF80000D5F810C0206800F5C070BB
:102AF00000EB0110C0F804C0287D01280ED1206829
:102B000000F5C07000EB0110406840F4807C206844
:102B100000F5C07000EB0110C0F804C0D0790006C9
:102B200092F806C040EA0C4092F805C040EA0C203A
:102B300092F804C040EA0C00D4F800C00CF5C07C48
:102B40000CEB011CCCF80C00D078000692F802C007
:102B500040EA0C4092F801C040EA0C2092F800C014
:102B600040EA0C00D4F800C00CF5C07C0CEB011C52
:102B7000CCF80800206800F5C07000EB0110006878
:102B800040F0010C01E00FE008E0206800F5C070A3
:102B900000EB0110C0F800C00020F0BD606A40F4F6
:102BA000001060620120F8E7606A40F480206062F3
:102BB0000120F2E7F0B504460A46216894F8205057
:102BC000012D01D0022D7ED1424901F50071086826
:102BD00040F001000860086820F47C500860086834
:102BE000566A40EA06200860107D00F01F060120AA
:102BF00000FA06F3C8699843C861A1F50071D0696D
:102C0000C8B9D1F80C029843C1F80C02908880B280
:102C1000968940EA064601F51070576940F837601A
:102C2000108880B2168940EA064601F5107057698F
:102C300000EBC7004660D069012819D1D1F80C0219
:102C40001843C1F80C02908880B2168840EA064604
:102C500001F51070576940F83760908980B2168985
:102C600040EA064601F51070576900EBC700466060
:102C7000906928B9D1F804029843C1F8040204E02D
:102C8000D1F804021843C1F80402106928B9D1F838
:102C900014029843C1F8140204E0D1F81402184356
:102CA000C1F81402106A012804D1D1F81C0218439B
:102CB000C1F81C02D1F8000220F00100C1F80002A6
:102CC0000020F0BDFFE7606A40F4802060620120D0
:102CD000F7E7000000640040704770B5044694F8C0
:102CE0002050012D01D0022D7DD151B92068C0683E
:102CF00000F0030080B9606A40F4001060620120B7
:102D000070BD2068006900F0030028B9606A40F4D3
:102D1000001060620120F3E7206800F5D87000EB36
:102D20000110006800F004009060906840B92068CD
:102D300000F5D87000EB01100068400D106007E04E
:102D4000206800F5D87000EB01100068C0085060E2
:102D5000206800F5D87000EB0110006800F0020058
:102D6000D060206800F5D87000EB0110406800F0DA
:102D70000F00082802D30820106108E0206800F541
:102D8000D87000EB0110406800F00F00106120685F
:102D900000F5D87000EB0110406800F47F40000A95
:102DA0009061206800F5D87000EB01104068000CBD
:102DB0005061206800F5D87000EB01108068187031
:102DC000206800F5D87000EB0110806800F47F40A7
:102DD000000A5870206800F5D87000EB0110806878
:102DE00000F47F0000E03CE0000C9870206800F5E3
:102DF000D87000EB01108068000ED870206800F5D4
:102E0000D87000EB0110C0681871206800F5D87008
:102E100000EB0110C06800F47F40000A5871206880
:102E200000F5D87000EB0110C06800F47F00000CC2
:102E30009871206800F5D87000EB0110C068000E92
:102E4000D87131B92068C06840F020002668F06071
:102E500005E02068006940F020002668306100200D
:102E60004EE7606A40F480206062012048E72DE967
:102E7000F05F04460025206846692068D0F8049079
:102E8000206887682068D0F80CA02068D0F810B0BF
:102E90002068D0F8188006F00100002855D007F00F
:102EA0000100C0B101202168886007F0020018B15C
:102EB000204600F00AFB0EE007F0040010B145F4D4
:102EC000006508E007F0080010B145F4805502E005
:102ED000204600F0F9FA07F48070C8B14FF4807012
:102EE0002168886007F4007018B1204600F0EFFAFE
:102EF0000EE007F4806010B145F4005508E007F4D7
:102F0000006010B145F4804502E0204600F0DEFA92
:102F100007F48030C8B14FF480302168886007F42E
:102F2000003018B1204600F0D4FA0EE007F48020FB
:102F300010B145F4004508E007F4002010B145F455
:102F4000803502E0204600F0C3FA06F0080038B1F0
:102F50000AF0100020B145F4007510202168C86007
:102F600006F0040040B10AF0080028B108202168EA
:102F7000C860204600F01CFA06F0020038B1206854
:102F8000C06800F0030010B1204600F013FA06F00C
:102F9000400038B10BF0100020B145F480651020DE
:102FA0002168086106F0200040B10BF0080028B14C
:102FB000082021680861204600F028FA06F0100079
:102FC00038B12068006900F0030010B1204600F01D
:102FD0001FFA06F4003040B109F0100028B11020AB
:102FE00021684860204600F03FFA06F4803040B186
:102FF00009F0080028B1082021684860204600F048
:1030000069FA06F4004088B309F0040078B306F4C6
:10301000807020B108F0010008B145F0010506F408
:10302000007020B108F0020008B145F0020506F476
:10303000806020B108F0040008B145F0040506F4F2
:103040000060A0B108F0700088B108F0700040285E
:1030500017D006DC10280BD020280CD0302819D12E
:103060000CE0502810D0602814D110E01DE019E0C9
:1030700045F008050FE045F010050CE045F020058F
:1030800009E045F0400506E045F0800503E045F421
:10309000807500E000BF00BF2068806920F07000EC
:1030A000216888610420216848602DB1606A284346
:1030B00060622046FFF710FEBDE8F09F70B5044641
:1030C0000CB9012070BD94F8200010B9204600F022
:1030D000AFF82068006840F001002168086000F047
:1030E00069FD05460DE000F065FD401B0A2808D982
:1030F000606A40F400306062052084F820000120FE
:10310000E0E72068406800F001000028EBD020686C
:10311000006820F002002168086000F04BFD0546C1
:103120000DE000F047FD401B0A2808D9606A40F412
:1031300000306062052084F820000120C2E720688A
:10314000406800F002000028EBD1207E012806D163
:103150002068006840F080002168086005E0206871
:10316000006820F0800021680860607E012806D198
:103170002068006840F040002168086005E0206891
:10318000006820F0400021680860A07E012806D178
:103190002068006840F020002168086005E0206891
:1031A000006820F0200021680860E07E012806D138
:1031B0002068006820F010002168086005E02068A1
:1031C000006840F0100021680860207F012806D1C7
:1031D0002068006840F008002168086005E0206869
:1031E000006820F0080021680860607F012806D18F
:1031F0002068006840F004002168086005E020684D
:10320000006820F0040021680860D4E90201084346
:1032100021690843616908436168491E08432168C0
:10322000C86100206062012084F82000002049E786
:1032300010B586B00446142101A8FDF713F95649CC
:103240002068884249D155480068401C53490860AD
:103250000846006801280FD100BF002000905048A8
:10326000006840F000704E4908600846006800F0B1
:103270000070009000BF00BF00BF002000904848D1
:103280001038006840F008004549103908600846C9
:10329000006800F00800009000BF00BF032001900C
:1032A0000220029000200390032004900920059042
:1032B00001A93C4800F07EFB00220121132000F010
:1032C000D7FF132000F0C0FF00220121142000F0DE
:1032D000CFFF142000F0B8FF5CE03349206888423B
:1032E00058D100BF002000902D48006840F0806059
:1032F0002B4908600846006800F08060009000BF1D
:1033000000BF26480068401C244908600846006841
:1033100001280FD100BF002000902148006840F034
:1033200000701F4908600846006800F000700090B7
:1033300000BF00BF00BF002000901948103800688F
:1033400040F002001649103908600846006800F095
:103350000200009000BF00BF602001900220029098
:1033600000200390032004900920059001A90F4834
:1033700000F020FB002201213F2000F079FF3F20D8
:1033800000F062FF00220121402000F071FF402088
:1033900000F05AFF06B010BD006400401401002088
:1033A00040380240000C0240006800400004024027
:1033B0007047000010B504461049206888420CD1BF
:1033C0000F4BA3F11C0200212046FFF786FC0C489E
:1033D0002038816A001D88470FE00A49206888422A
:1033E0000BD1094BA3F11C0200212046FFF775FC0D
:1033F00005482038816A001D884710BD00640040E0
:10340000CC15002000680040F8150020704700002F
:1034100010B504461049206888420CD10F4BA3F127
:103420001C0201212046FFF758FC0C482038816A15
:10343000001D88470FE00A49206888420BD1094BDC
:10344000A3F11C0201212046FFF747FC0548203864
:10345000816A001D884710BD00640040CC15002023
:1034600000680040F8150020704770B5044694F8D5
:103470002000012822D1022084F820002068006862
:1034800020F001002168086000F094FB05460DE083
:1034900000F090FB401B0A2808D9606A40F4003015
:1034A0006062052084F82000012070BD206840681B
:1034B00000F001000028EBD16062F6E7606A40F49A
:1034C000002060620120F0E7704770477047704746
:1034D00070477047704770B50446A56D00F06AFBF1
:1034E000064694F83500022808D08020606500BFA9
:1034F000002084F8340000BF012070BD20680068FF
:1035000020F01600216808602068406920F08000E3
:1035100021684861206C08B9A06C28B12068006857
:1035200020F00800216808602068006820F0010091
:103530002168086010E000F03DFB801B05280BD9D6
:1035400020206065032084F8350000BF002084F847
:10355000340000BF0320D0E72068006800F00100BD
:103560000028E8D194F85C103F208840A860012032
:1035700084F8350000BF002084F8340000BF00BF8D
:10358000BBE7014691F83500022803D0802048654A
:1035900001207047052081F835000868006820F098
:1035A00001000A6810600020F3E70000F8B5044647
:1035B000002000908C4800684FF41651B0FBF1F7E2
:1035C000A56D2E6894F85C1008208840304098B1B2
:1035D0002068006800F0040070B12068006820F0E6
:1035E00004002168086094F85C1008208840A860F6
:1035F000606D40F00100606594F85C100120884027
:10360000304068B12068406900F0800040B194F813
:103610005C1001208840A860606D40F00200606589
:1036200094F85C1004208840304068B1206800683D
:1036300000F0020040B194F85C1004208840A860BB
:10364000606D40F00400606594F85C1010208840C4
:10365000304078B32068006800F0080050B394F858
:103660005C1010208840A8602068006800F480206A
:1036700080B12068006800F4002028B9206CC8B12F
:103680002046216C884715E0A06C98B12046A16CBB
:1036900088470FE02068006800F4807028B920682F
:1036A000006820F0080021680860206C10B12046F6
:1036B000216C884794F85C10202088403040002816
:1036C00065D02068006800F0100000285FD094F8F2
:1036D0005C1020208840A86094F83500052828D187
:1036E0002068006820F016002168086020684069A2
:1036F00020F0800021684861206C08B9A06C28B1D6
:103700002068006820F008002168086094F85C10C8
:103710003F208840A860012084F8350000BF0020C9
:1037200084F8340000BF206D10B12046216D884719
:10373000F8BD2068006800F4802080B1206800682F
:1037400000F4002028B9606C10B12046616C8847F5
:103750001DE0E06BD8B12046E16B884717E0206898
:10376000006800F4807068B92068006820F01000DC
:1037700021680860012084F8350000BF002084F82B
:10378000340000BFE06B10B12046E16B8847606DEC
:1037900038B3606D00F00100F0B1052084F8350009
:1037A0002068006820F001002168086000BF0098D0
:1037B000401C0090B84200D905E02068006800F085
:1037C00001000028F3D100BF012084F8350000BFBC
:1037D000002084F8340000BFE06C10B12046E16C9A
:1037E000884700BFA4E70000240100202DE9F04134
:1037F0000446002500F0DEF9074614B90120BDE8B3
:10380000F081606A00B100BF022084F8350000BF7B
:10381000002084F8340000BF2068006820F0010018
:10382000216808600AE000F0C5F9C01B052805D929
:1038300020206065032084F83500E0E720680068F8
:1038400000F001000028EED12068056821480540FD
:10385000D4E901010843E16808432169084361692B
:103860000843A1690843E1690843216A0843054305
:10387000606A042803D1D4E90B010843054320689A
:1038800005602068456925F00705606A0543606AA0
:1038900004280DD1A06A0543E06A48B12046FEF72E
:1038A00007F828B140206065012084F83500A6E7BC
:1038B000206845612046FDF7E1FF064694F85C105C
:1038C0003F208840B06000206065012084F835000A
:1038D000002094E73F8010F070B5044600F06AF9CC
:1038E00006462546681C10B104480078054400BF10
:1038F00000F060F9801BA842FAD370BD20010020BF
:1039000010B50446102C11D11D48007840F001007C
:103910001B4908701B48007840F0010019490870E5
:103920001948007858B30DF0A1F928E0202C0BD1EC
:103930001648007840F001001449087012480078D9
:10394000E8B10DF093F91AE0082C18D1104800786E
:1039500040F001000E4908700846007800F00100B0
:10396000087060B10846007820F001000870084631
:10397000007840F00200087006480DF0C1FA10BD52
:1039800076000020770000207900002075000020DC
:10399000780000209C05002010B50446044800680B
:1039A000204020B1024804602046FFF7A9FF10BD67
:1039B000143C0140F8B502460B46002500240020C7
:1039C0000021D6E0012606FA01F51E6806EA050484
:1039D000AC4274D11E7906F00306012E04D01E7984
:1039E00006F00306022E13D190684F000326BE4056
:1039F000B0434F00DE68BE403043906050680126FF
:103A00008E40B0431E79C6F300168E40304350609E
:103A10001E7906F00306032E09D0D0684F00032656
:103A2000BE40B0434F009E68BE403043D0601E7918
:103A300006F00306022E13D1CF0802F1200656F835
:103A400027004E07F70E0F26BE40B0434F07FF0E6C
:103A50001E69BE403043CF0802F1200646F8270019
:103A600010684F000326BE40B0431E7906F00306DF
:103A70004F00BE40304310605E6806F44036002EB2
:103A800076D000BF002600963C4E366846F480464D
:103A90003A4F3E603E46366806F48046009600BFC8
:103AA00000BF374E8F0856F827008E07370F0F26B6
:103AB000BE40B043334EB24202D1002624E057E06C
:103AC000314EB24201D101261EE0304EB24201D148
:103AD000022619E02E4EB24201D1032614E02D4EEB
:103AE000B24201D104260FE02B4EB24201D105268D
:103AF0000AE02A4EB24201D1062605E0284EB24223
:103B000001D1072600E008268F073F0FBE40304353
:103B10001B4E8F0846F82700224E3068A0435E688F
:103B200006F4801606B120431E4E3060361D306804
:103B3000A0435E6806F4001606B12043194E361DF8
:103B40003060184E361F3068A0435E6806F40036B9
:103B500006B12043134E361F3060361F3068A04335
:103B60005E6806F4803606B120430E4E083E306093
:103B7000491C1029FFF426AFF8BD0000443802406C
:103B800008380140000002400004024000080240E2
:103B9000000C0240001002400014024000180240D5
:103BA000001C0240083C01400AB1816101E00B04A5
:103BB00083617047014800687047000018010020C9
:103BC00070B504460CB9012070BD94F83D0028B9C9
:103BD000002084F83C00204600F05EFA242084F89F
:103BE0003D002068006820F001002168086020681E
:103BF000006840F40040216808602068006820F4F4
:103C000000402168086001F0E3FA05465C496068FD
:103C1000884206D85B48854201D2012007E0002097
:103C200005E05948854201D2012000E0002001282A
:103C300000D1C9E75548B5FBF0F62068406820F090
:103C40003F003043216848604D496068884201D890
:103C5000701C07E04FF4967070434FF47A71B0FB1C
:103C6000F1F0401C2168096A21F03F0108432168F6
:103C7000086243496068884214D8681E6168490038
:103C8000B0FBF1F0401CC0F30B00042801D204206B
:103C90003DE0681E61684900B0FBF1F0401CC0F3D4
:103CA0000B0034E0A06838B9681E616801EB41017F
:103CB000B0FBF1F0401C0AE0681E616801EBC10234
:103CC00002EB0111B0FBF1F0401C40F48040C0F366
:103CD0000B0008B901201AE0A06848B9681E6168A5
:103CE00001EB4101B0FBF1F0401CC0F30B000CE014
:103CF000681E616801EBC10202EB0111B0FBF1F03B
:103D0000401CC0F30B0040F4804040F400402168A8
:103D1000C9694CF6FF72914308432168C861D4E930
:103D2000070108432168096821F0C00108432168A0
:103D30000860D4E9031008432168896848F2FF321B
:103D40009143084321688860D4E90501084321684C
:103D5000C96821F0FF0108432168C8602068006835
:103D600040F001002168086000202064202084F8D1
:103D70003D000020206384F83E0000BF24E70000DF
:103D8000A086010080841E0000093D0040420F0013
:103D90002DE9FC5F04460F4690469946DDE90CABE1
:103DA0000E9EFFF707FF054694F83D00202870D1CE
:103DB00019230122B5492046009503F013F810B1EC
:103DC0000220BDE8FC9F00BF94F83C00012801D10F
:103DD0000220F6E7012084F83C0000BF206800685C
:103DE00000F0010028B92068006840F00100216857
:103DF00008602068006820F40060216808602220C4
:103E000084F83D00402084F83E0000202064C4F87F
:103E100024A0A4F82AB0608D20859D48E0624B461E
:103E2000424639462046CDE9006502F02BFF08B135
:103E30000120C6E7208D88B900BF002001902068CE
:103E40004069019020688069019000BF00BF206830
:103E5000006840F400702168086040E0208D01286F
:103E600018D12068006820F480602168086000BFD5
:103E700000200190206840690190206880690190CD
:103E800000BF00BF2068006840F40070216808602F
:103E900025E0F8E0208D022816D12068006820F483
:103EA0008060216808602068006840F40060216834
:103EB000086000BF002001902068406901902068E0
:103EC0008069019000BF0AE000BF002001902068D7
:103ED0004069019020688069019000BF00BFC3E085
:103EE000208D03287ED8208D012815D12A46314601
:103EF000204603F053F808B1012062E7206800690A
:103F0000616A0870606A401C6062208D401E2085D6
:103F1000608D401E6085A7E0208D02282AD133469F
:103F200000225C492046009502F05CFF08B10120A8
:103F300047E72068006840F4007021680860206846
:103F40000069616A0870606A401C6062208D401ED2
:103F50002085608D401E608520680069616A087058
:103F6000606A401C6062208D401E2085608D401E6E
:103F7000608579E03346002246492046009502F0EC
:103F800031FF08B101201CE72068006820F4806040
:103F90002168086020680069616A0870606A401CD6
:103FA0006062208D401E2085608D401E60853346F6
:103FB000002238492046009502F014FF08B1012084
:103FC000FFE62068006840F40070216808602068FF
:103FD0000069616A0870606A401C6062208D401E42
:103FE000208500E010E0608D401E6085206800693B
:103FF000616A0870606A401C6062208D401E2085E6
:10400000608D401E60852FE02A463146204602F032
:10401000C5FF08B10120D4E620680069616A087014
:10402000606A401C6062208D401E2085608D401EAD
:10403000608520684069C0F38000A8B1208D032806
:1040400005D12068006820F480602168086020683D
:104050000069616A0870606A401C6062208D401EC1
:104060002085608D401E6085208D00287FF438AF4C
:10407000202084F83D00002084F83E0000BF84F832
:104080003C0000BF9DE602209BE6000002001000FD
:104090000000FFFF0400010010B586B004461421A3
:1040A00001A8FCF7DFF92A49206888424DD100BFFA
:1040B000002000902748006840F00400254908606F
:1040C0000846006800F00400009000BF00BF00BF79
:1040D000002000900846006840F001000860084693
:1040E000006800F00100009000BF00BF481501907B
:1040F00012200290012003900320049004200590D8
:1041000001A91548FFF756FC4FF48070019012206A
:10411000029001200390032004900420059001A93F
:104120000E48FFF747FC00BF002000900948103000
:10413000006840F400000749103108600846006834
:1041400000F40000009000BF00BF06B010BD0000EA
:10415000005C00403038024000080240000002408D
:10416000034800680349097808440149086070471A
:10417000180100202001002010B50D48006840F40F
:1041800000700B4908600846006840F480600860D1
:104190000846006840F480700860032000F0A6F82C
:1041A0000F2000F007F800F02BF8002010BD0000F1
:1041B000003C024070B504460E4800784FF47A7116
:1041C000B1FBF0F00C490968B1FBF0F5284601F0AD
:1041D000FBFC08B1012070BD102C07D20022214643
:1041E000501E00F045F80548046001E00120F2E7A8
:1041F0000020F0E720010020240100201C01002005
:1042000008B500BF002000900E48006840F48040D0
:104210000C4908600846006800F48040009000BF28
:1042200000BF00BF00200090081F006840F08050D1
:10423000091F08600846006800F08050009000BF29
:1042400000BF08BD443802400146084600280DDB87
:1042500000BF00BF00F01F0301229A4043099B00EA
:1042600003F1E023C3F8002100BF00BF00BF704787
:104270002DE9F05F80460D46164600270AF024FF20
:10428000074639462A46334601F00700C0F1070ABF
:10429000BAF1040F02D94FF0040A01E0C0F1070A95
:1042A000D14600F1040ABAF1070F02D24FF0000A1A
:1042B00001E0A0F1030AD4464FF0010A0AFA09FA14
:1042C000AAF1010A0AEA020A0AFA0CFA4FF0010BF3
:1042D0000BFA0CFBABF1010B0BEA030B4AEA0B04E4
:1042E000214640460AF0F8FEBDE8F09F00BF00F00E
:1042F0000702064B19684FF6FF031940044B0B43A6
:1043000043EA0221014B196000BF70470CED00E049
:104310000000FA05704702461068416200207047AD
:10432000F0B5034615461868446A21B944EA0540C9
:104330001E68B06219E01868806A04EB104400221D
:1043400008E0186800F5827050F8220004EB104471
:10435000501CC2B2481E9042F3D844EA0547186880
:1043600000F582704E1E40F826700020F0BDD0F897
:10437000E00409F011BA01EBC10200EB8202D0F8AF
:10438000E004126A09F032B901EBC10200EB8202CB
:10439000D0F8E004D2F8602209F096B9D0F8E00431
:1043A00009F0FCB92DE9F04104460D4605F0800006
:1043B000802808D105F00F0000EBC00104F11400C3
:1043C00000EB810607E005F00F0000EBC00104F5EB
:1043D000157000EB8106314620680AF005FB0746A0
:1043E0003846BDE8F08170B504460E4606F0800000
:1043F00080280AD106F00F0000EBC00104F1140080
:1044000000EB81050120687009E006F00F0000EB69
:10441000C00104F5157000EB81050020687006F0FE
:104420000F00287000BF94F89404012801D10220E5
:1044300070BD012084F8940400BF2946206809F06B
:1044400067FE00BF002084F8940400BF00BFEFE7C0
:1044500070B504460E4606F00F002179884201D956
:10446000012070BD06F0800080280AD106F00F0000
:1044700000EBC00104F1140000EB8105012068701D
:1044800009E006F00F0000EBC00104F5157000EB29
:104490008105002068700020A87006F00F002870C9
:1044A00000BF94F89404012801D10220D9E701202B
:1044B00084F8940400BF294620680AF027F800BF5A
:1044C000002084F8940400BF00BFCAE7024601F050
:1044D0000F0000EBC00302F5157000EB830040698C
:1044E00070472DE9F04705460E4690461F464FF0AF
:1044F000000906F0800080280AD106F00F0000EBCA
:10450000C00105F1140000EB81040120607009E096
:1045100006F00F0000EBC00105F5157000EB8104FB
:104520000020607006F00F002070C4F8088027712A
:10453000607808B120786083022F01D1002060717B
:1045400000BF95F89404012802D10220BDE8F0874D
:10455000012085F8940400BF2146286809F0ECFC8E
:1045600000BF002085F8940400BF4846EEE72DE91F
:10457000F04105460E461746984606F00F0000EB40
:10458000C00105F5157000EB8104E760C4F81080E8
:1045900000206061607006F00F002070A87901288B
:1045A00000D1E761AA79214628680AF043F8002083
:1045B000BDE8F08170B504460D4605F00F00217985
:1045C000884201D9012070BD05F0800080280AD101
:1045D00005F00F0000EBC00104F1140000EB8106B0
:1045E0000120707007E005EBC50104F5157000EBC4
:1045F0008106002070700120B07005F00F0030704F
:1046000000BF94F89404012801D10220DBE70120C7
:1046100084F8940400BF3146206809F0BEFF05F01D
:104620000F0028B9A17904F29C42206809F036FFF6
:1046300000BF002084F8940400BF00BFC3E72DE949
:10464000F04105460E461746984606F00F0000EB6F
:10465000C00105F1140000EB8104E760C4F810808C
:10466000002060610120607006F00F002070A879C2
:10467000012800D1E761AA792146286809F0DAFF0C
:104680000020BDE8F0812DE9FE4F0446D4F800B0CB
:104690005E4620680AF08AFA002874D120680AF081
:1046A000C4FA08B9BDE8FE8F40F608008059C0F38F
:1046B0000D20C4F8D40420680AF0B7FA00F0020014
:1046C000022805D12068406900F002002168486195
:1046D00020680AF0AAFA00F01000102845D12068DE
:1046E000806920F0100021688861DBF8209009F0D3
:1046F0000F0000EBC00104F5157000EB810AC9F34F
:10470000434002281AD147F6F07009EA000030B39E
:10471000C9F30A125846DAF80C100AF08BFAC9F3FA
:104720000A11DAF80C000844CAF80C00C9F30A119F
:10473000DAF814000844CAF8140010E0C9F3434042
:1047400006280CD1082204F29C4158460AF072FA5D
:10475000C9F30A11DAF814000844CAF814002068F2
:10476000806940F010002168886120680AF05DFAD5
:1047700000F40020B0F5002F7BD1002520680AF05E
:1047800024FA029072E0E1E2029800F001000028B1
:1047900068D0E9B220680AF03BFA804608F00100D0
:1047A00048B1012106F5306000EB451081602946D3
:1047B000204604F005F808F00800082809D108216F
:1047C00006F5306000EB451081602946204603F075
:1047D000C5FF08F01000102805D1102106F5306043
:1047E00000EB4510816008F00200022824D1DBF8BC
:1047F000140000F08000802807D140F604008059A2
:1048000040F4806140F60400815105EBC50104F5D8
:10481000157000EB810A9AF80300012806D10020E8
:104820008AF80300E9B2204600F096FA022106F564
:10483000306000EB4510816008F02000202805D191
:10484000202106F5306000EB4510816008F400502F
:10485000B0F5005F06D14FF4005106F5306000EB73
:10486000451081606D1C0298400802900298002853
:104870008AD120680AF0D9F900F48020B0F5802FA1
:104880007DD120680AF097F9029000259AE00298FD
:1048900000F00100002873D0E9B220680AF09FF907
:1048A000804608F00100F0B305F00F0101208840B8
:1048B000019040F634008159019821EA000040F649
:1048C00034018851012106F5106000EB451081602C
:1048D000A079012824D105EBC50104F1140000EBF7
:1048E000810005EBC502C16804F1140000EB8200F1
:1048F0008068014405EBC50204F1140000EB82005E
:10490000C1606DB905EBC50104F1140000EB810035
:10491000006928B904F29C420121206809F0BEFD1B
:10492000E9B2204600E001E0FFF725FD08F00800AD
:10493000082805D1082106F5106000EB45108160BC
:1049400008F01000102805D1102106F5106000EBCA
:104950004510816008F04000402805D1402106F54F
:10496000106000EB4510816008F0020002281DD1A4
:10497000294658460AF0DDF805EBC50101E025E0BF
:104980001CE004F1140000EB810A9AF803000128EE
:1049900006D100208AF80300E9B2204600F0D8F9D9
:1049A000022106F5106000EB4510816008F08000E0
:1049B000802803D12946204603F0A4FF6D1C0298ED
:1049C00040080290029800287FF461AF20680AF046
:1049D0002CF900F00040B0F1004F1CD140F604006B
:1049E000805920F0010140F60400815194F8CC0474
:1049F000012807D1002084F8CC0400212046FFF7CD
:104A000089FC02E0204600F0B4FA2068406900F01A
:104A100000402168486120680AF007F900F400604E
:104A2000B0F5006F0ED140F60800805900F001008B
:104A300010B1204600F0ECFA2068406900F40060F4
:104A40002168486120680AF0F0F800F48050B0F561
:104A5000805F7ED140F60400805920F0010140F6CD
:104A600004008151102120680AF063F8002732E029
:104A70004FF67F3106F5106000EB4710816006F5B8
:104A8000106000EB4710006820F4001106F510607C
:104A900000EB471001604FF67F3106F5306000EB08
:104AA0004710816006F5306000EB4710006820F485
:104AB000001106F5306000EB4710016006F530602C
:104AC00000EB4710006840F0006106F5306000EB35
:104AD000471001607F1C2079B842C9D840F61C00FD
:104AE000805940F0011140F61C008151E07B70B10B
:104AF000D6F8840840F00B01C6F8841840F644004C
:104B0000805940F00B0140F6440081510FE040F61F
:104B10001400805942F22B01084340F614018851D9
:104B2000081F805940F00B014FF401608151D6F805
:104B3000000820F4FE60C6F80008A17904F29C4247
:104B4000206809F0ABFC2068406900F480502168BF
:104B500000E000E0486120680AF067F800F40050C7
:104B6000B0F5005F17D1206809F04EFA20680AF00E
:104B70000AF8E07100F026FB0090E27920680099C5
:104B80000AF0DAF8204600F0DDF92068406900F408
:104B900000502168486120680AF047F800F00800DA
:104BA000082808D1204600F0E8F92068406900F0A4
:104BB00008002168486120680AF037F800F080009A
:104BC000802818D1DBF8180020F08000CBF81800FE
:104BD00001250DE005EBC50104F5157000EB810022
:104BE000C078012803D1E9B22046FFF7DBFB6D1C3A
:104BF0002079A842EED820680AF017F800F4801057
:104C0000B0F5801F2DD1012522E006F5106000EBE4
:104C10004510D0F8009005EBC50104F1140000EB3D
:104C200081000079012812D109F00040B0F1004F55
:104C30000DD1012105EBC50204F1140000EB820047
:104C4000C170E8B240F080012046FFF7ABFB6D1C5D
:104C50002079A842D9D82068406900F480102168E2
:104C60004861206809F0E1FF00F40010B0F5001F72
:104C700044D1012538E006F5306000EB4510D0F84E
:104C8000009005EBC50104F5157000EB810000797B
:104C9000012828D109F00040B0F1004F23D109F4D8
:104CA000803094F8D41401F0010188421BD1012115
:104CB00005EBC50204F5157000EB8200C170DBF84E
:104CC000180040F08000CBF81800DBF8140000F06A
:104CD000800040B940F60400805940F4007140F66D
:104CE0000400815103E06D1C2079A842C3D800BFA5
:104CF0002068406900F4001021684861206809F0CC
:104D000094FF00F08040B0F1804F08D12046FFF7BB
:104D10002EFB2068406900F08040216848612068CF
:104D200009F083FF00F0040004280FD12068D0F8B8
:104D3000049009F00400042802D12046FFF72EFB5E
:104D40002068406840EA09002168486000BFA9E483
:104D5000D0F8E00408F076BDD0F8E00408F087BD94
:104D6000F8B504460CB90120F8BD266894F89504FE
:104D700028B9002084F89404204600F0A1F803200C
:104D800084F89504B6F1A04F01D10021A1712068EB
:104D900009F07CFB207C8DF8000094E80F0009F0FE
:104DA00047F920B1022084F895040120DCE70021B6
:104DB000206809F06FFF20B1022084F895040120DB
:104DC000D2E7002531E0012105EBC50204F1140012
:104DD00000EB8200417005EBC50104F1140000F8FE
:104DE000215005EBC50100EB81004583002105EB57
:104DF000C50204F1140000EB8200017105EBC5024D
:104E000004F1140000EB8200816005EBC50204F19F
:104E1000140000EB8200C16005EBC50204F1140030
:104E200000EB82000161681CC5B22079A842CADC8F
:104E300000252AE0002105EBC50204F5157000EB02
:104E40008200417005EBC50104F5157000F8215092
:104E5000002105EBC50200EB8200017105EBC502E4
:104E600004F5157000EB8200816005EBC50204F5C6
:104E7000157000EB8200C16005EBC50204F51570EA
:104E800000EB82000161681CC5B22079A842D1DC28
:104E9000207C8DF8000094E80F0009F003FA20B19F
:104EA000022084F8950401205EE700206074012050
:104EB00084F89504206809F0E3F9002054E7000025
:104EC00000B587B0002102910391049105910691EC
:104ED0000068B0F1A04F2BD11648016841F00101E4
:104EE0000160006800F0010001904FF4C050029092
:104EF00002200390032005900A20069002A90E4884
:104F0000FEF758FD0D48016841F0800101600C4832
:104F1000016841F480410160006800F48040019024
:104F2000002211464320FFF7A3F94320FFF78CF935
:104F300007B000BD30380240000002403438024063
:104F40004438024070B504460125E07900280ED0AF
:104F5000022801D0FCF7D8FD2946D4F8E00408F077
:104F6000F7FCD4F8E004BDE8704008F0AABC0025C6
:104F7000F2E7D0F8E00408F0D4BCD0F8E00408F080
:104F8000DABC70B504460D4600BF94F894040128BD
:104F900001D1022070BD012084F8940400BF657423
:104FA0002946206809F0AAFE00BF002084F8940476
:104FB00000BF00BFEEE7D0F8E02400F29C411046AD
:104FC00008F0D2BC70B50446256800BF94F894047C
:104FD000012801D1022070BD012084F8940400BF93
:104FE000E86800F0400030B1607B012803D1A86B75
:104FF00040F48030A863206809F06CFD206809F057
:105000002DF900BF002084F8940400BF00BFE2E740
:1050100010B50446D4F8E00408F0EAFC2068D0F8A3
:10502000001E41F00101C0F8001EE07A002804D003
:105030000248016841F00601016010BD10ED00E07A
:1050400070B504460D460CB9012070BD5848006883
:1050500000F00700A84209D255490D7008460068C3
:1050600000F00700A84201D00120EEE7207800F010
:10507000020002281DD1207800F00400042805D188
:105080004C48006840F4E0504A490860207800F03D
:105090000800082805D14748006840F460404549A9
:1050A00008604448006820F0F000A16808434149C6
:1050B0000860207800F00100A8B36068012807D1DB
:1050C0003C4808380068C0F34040B8B90120BCE74C
:1050D0006068022802D06068032807D13548083884
:1050E0000068C0F3406048B90120AEE73148083895
:1050F0000068C0F3400008B90120A6E72D48006809
:1051000020F00300616808432A490860FEF752FD59
:10511000064609E0FEF74EFD801B41F288318842C9
:1051200002D9032091E707E02248006800F00C0054
:105130006168B0EB810FEDD11D48006800F00700F9
:10514000A84209D91A490D700846006800F0070006
:10515000A84201D0012078E7207800F0040004285C
:1051600007D11448006820F4E050E1680843114971
:105170000860207800F00800082808D10D48006871
:1051800020F46040216940EAC1000A49086000F04B
:105190003FF808490968C1F30311074A515CC84048
:1051A0000649086006480068FFF704F800204CE74D
:1051B000003C024008380240641E0108240100201F
:1051C0001C010020014800687047000024010020F5
:1051D00000B5FFF7F7FF04490968C1F38221034ACC
:1051E000515CC84000BD000008380240741E010830
:1051F00000B5FFF7E7FF04490968C1F34231034AEC
:10520000515CC84000BD000008380240741E01080F
:105210002DE9F047002400250026A1462548006816
:1052200000F00C0020B1042805D008283AD105E090
:10523000DFF8849039E0DFF8849036E01D48001FE5
:10524000006800F03F041B48001F006800F4800065
:1052500078B11A481749091F0968C1F38811A0FBE2
:1052600001700146224600233846FBF71DF805462B
:105270000EE011480F49091F0968C1F38811A0FB0E
:1052800001700146224600233846FBF70DF805461B
:105290000848001F0068C0F30140401C4600B5FBF1
:1052A000F6F902E0DFF8109000BF00BF4846BDE805
:1052B000F0870000083802400024F400001BB7000B
:1052C000F8B504460CB90120F8BD207800F00100C3
:1052D000002874D0F948006800F00C0004280DD0B4
:1052E000F648006800F00C00082813D1F348001FAE
:1052F000006800F48000B0F5800F0BD1EF4808384B
:105300000068C0F34040002859D06068002856D19A
:105310000120D9E700BF6068B0F5803F08D1E748B9
:105320000838006840F48030E449083908601EE01D
:105330006068B0F5A02F0DD1E0480838006840F44F
:105340008020DE49083908600846006840F4803053
:1053500008600CE0D9480838006820F48030D7494C
:10536000083908600846006820F48020086000BF03
:10537000606890B1FEF71EFC054606E0FEF71AFCD9
:10538000401B642801D903209EE7CC4808380068F8
:10539000C0F340400028F1D011E0FEF70BFC0546B9
:1053A00006E0FEF707FC401B642801D903208BE7C9
:1053B000C24808380068C0F340400028F1D1207886
:1053C00000F0020002285FD1BC48006800F00C0029
:1053D00058B1BA48006800F00C0008281CD1B74842
:1053E000001F006800F48000B0B9B44808380068B5
:1053F000C0F3400020B1E068012801D0012063E73C
:10540000AE480838006820F0F800216940EAC10081
:10541000AA490839086037E0E06800B30120A849CC
:105420000860FEF7C7FB054606E0FEF7C3FB401B1E
:10543000022801D9032047E7A04808380068C0F3D4
:1054400040000028F1D09D480838006820F0F8009E
:10545000216940EAC10099490839086014E0002038
:1054600097490860FEF7A6FB054606E0FEF7A2FB9B
:10547000401B022801D9032026E79048083800681D
:10548000C0F340000028F1D1207800F0080008287F
:105490002CD16069A8B101208A490860FEF78AFB17
:1054A000054606E0FEF786FB401B022801D90320D3
:1054B0000AE782486C300068C0F340000028F1D051
:1054C00014E000207F490860FEF774FB054606E003
:1054D000FEF770FB401B022801D90320F4E6774851
:1054E0006C300068C0F340000028F1D1207800F053
:1054F0000400042870D1002770483830006800F09C
:10550000805090B900BF002000906C48383000688F
:1055100040F080506949383108600846006800F062
:105520008050009000BF00BF01276748006800F46A
:105530008070B0B96448006840F4807062490860C7
:10554000FEF738FB054606E0FEF734FB401B022859
:1055500001D90320B8E65C48006800F48070002898
:10556000F2D000BFA068012808D154486830006814
:1055700040F001005149683108601DE0A06805282D
:105580000DD14E486830006840F004004B49683146
:1055900008600846006840F0010008600CE04748D9
:1055A0006830006820F0010044496831086008460E
:1055B000006820F00400086000BFA068A8B1FEF7F2
:1055C000F9FA054609E0FEF7F5FA401B41F2883189
:1055D000884202D9032077E626E038486830006820
:1055E000C0F340000028EED013E0FEF7E3FA0546D2
:1055F00008E0FEF7DFFA401B41F28831884201D90A
:10560000032061E62D4868300068C0F340000028A0
:10561000EFD1012F07D129483830006820F08050A1
:1056200026493831086000BFA069002845D02348CA
:10563000006800F00C0008285DD0A069022845D160
:1056400000201F490866FEF7B5FA054606E0FEF79A
:10565000B1FA401B022801D9032035E61748083863
:105660000068C0F340600028F1D1D4E90701084385
:10567000616A40EA81110122A06AC2EB500041EA4E
:1056800000412C20005D41EA00600C49091F0860C0
:1056900001200B490866FEF78DFA054606E0FEF785
:1056A00089FA401B022801D903200DE60348083877
:1056B0000068C0F340600028F1D049E0083802409B
:1056C00000004742800E4742007000400020214900
:1056D0000866FEF76FFA054606E0FEF76BFA401B18
:1056E000022801D90320EFE51B480068C0F34060A1
:1056F0000028F2D12CE0A069012800D1E4E5164889
:10570000001D0668A069012820D006F48001E06928
:1057100081421BD106F03F01206A814216D147F633
:10572000C0703040616AB0EB811F0FD106F4403188
:105730000122A06AC2EB5000B1EB004F06D106F087
:1057400070612C20005DB1EB006F01D00120BBE542
:105750000020B9E5000047420038024010B5044679
:105760000CB9012010BD606A38B96068B0F5827F5D
:1057700000D105E00021E16102E0002121616161C9
:105780000021A16294F8510028B9002084F850004B
:10579000204600F047F8022084F851002068006895
:1057A00020F0400021680860A08800F48270218900
:1057B00001F404410843A18901F400610843217CFC
:1057C00001F002010843217D01F001010843218B12
:1057D00001F400710843217F01F0380108432021C2
:1057E000095D01F080010843218D01F40051084357
:1057F000216808600421A06901EA104094F824108F
:1058000001F010010843216848602068C06920F455
:1058100000602168C86100206065012084F85100A3
:1058200000209FE710B586B00446142101A8FAF7BE
:1058300019FE4E49206888427ED100BF00200090AA
:105840004B48006840F480504949086008460068A9
:1058500000F48050009000BF00BF00BF0020009007
:1058600043481438006840F0020041491439086088
:105870000846006800F00200009000BF00BF00BFB3
:10588000002000900846006840F0010008600846CB
:10589000006800F00100009000BF00BF18200190D8
:1058A000022002900120039003200490052005901F
:1058B00001A93048FEF77EF8802001900220029076
:1058C00001200390032004900520059001A92A4897
:1058D000FEF770F829482A4908604FF0C060486018
:1058E000002127488160C1604FF48061016100217F
:1058F00041618161C1614FF4403101620421416223
:10590000032181620021C1620163FDF76FFF08B1CD
:10591000FCF7FAF800BF1A48E064846300BF174838
:105920001830184908604FF0C060486040211548A1
:1059300081600021C16000E015E04FF480610161E9
:10594000002141618161C1614FF400310162002198
:105950004162FDF74BFF08B1FCF7D6F800BF0948DC
:10596000A064846300BF06B010BD00000030014099
:1059700044380240000402400000024040640240FB
:1059800050070020B00700202DE9FF5F044688463D
:1059900091461D460E9E012002900020019000BFFE
:1059A00094F85000012803D1022004B0BDE8F09F14
:1059B000012084F8500000BFFEF7FCF8074694F879
:1059C00051B060680390AA46BBF1010F0BD0039859
:1059D000B0F5827F04D1A06810B9BBF1040F02D0EA
:1059E00002200190E9E0B8F1000F03D0B9F1000FF7
:1059F00000D015B901200190DFE094F8510004288F
:105A000002D0052084F8510000206065C4F8389069
:105A1000E587A587C4F83080E586A58620646064A4
:105A20002068006800F04000402805D02068006829
:105A300040F0400021680860E068B0F5006F4DD18B
:105A4000606810B1BAF1010F09D1206B008821689C
:105A5000C860206B801C2063E08E401EE08636E02C
:105A60002068806800F00200022810D1E08E70B13A
:105A7000029801280BD1206B00882168C860206B38
:105A8000801C2063E08E401EE0860020029020688B
:105A9000806800F0010068B1E08F58B12068C068EC
:105AA000A16B0880A06B801CA063E08F401EE08784
:105AB00001200290FEF77EF8C01BB04207D3701C95
:105AC00028B103200190012084F8510075E0E08E98
:105AD0000028C5D1E08F0028C2D14DE0606810B128
